:100000000C940F010C9430010C9430010C943001CD
:100010000C9430010C9430010C9430010C9430019C
:100020000C9430010C9430010C9430010C9430018C
:100030000C9430010C9430010C9430010C9430017C
:100040000C9430010C9430010C9430010C9430016C
:100050000C9430010C9430010C9430010C9430015C
:100060000C9430010C9443010C9430010C94300139
:100070000C9430010C9430010C9430010C9430013C
:100080000C9430010C9430010C9430010C9430012C
:100090000C9430010C9430010C9430010C9430011C
:1000A0000C9430010C9430010C9430010C9430010C
:1000B0000C9430010C9430010C9430010C943001FC
:1000C0000C9430010C9430010C9430010C943001EC
:1000D0000C9430010C9430010C9430010C943001DC
:1000E0000C9430010C9430010C9430010C943001CC
:1000F0000C9430010C9430010C9430010C943001BC
:100100000C9430010C9430010C9430010C943001AB
:100110000C9430010C9430010C9430010C9430019B
:100120000C9430010C9430010C9430010C9430018B
:100130000C9430010C9430010C9430010C9430017B
:100140000C9430010C9430010C9430010C9430016B
:100150000C9430010C9430010C9430010C9430015B
:100160000C9430010C9430010C9430010C9430014B
:100170000C9430010C94300105A84CCDB2D44EB98A
:100180003836A9020C50B9918688083CA6AAAA2A3A
:10019000BE000000803F001F000000001F00001F85
:1001A000101010101F00001F181818181F00001F33
:1001B0001C1C1C1C1F00001F1E1E1E1E1F00001FDB
:1001C0001F1F1F1F1F0003070F1F0F070300001F24
:1001D0001F1F1F1F1F001B1B1B1B1B1B1B00181C93
:1001E0001E1F1E1C18000004040E0E1F1F00001FFF
:1001F0001F0E0E0404000000000000000000000EAE
:100200001915130E0000000E1515150E0000000E36
:100210001315190E0000000E111F110E00001124FD
:100220001FBECFEFDFE2DEBFCDBF18BE19BE1ABEC4
:100230001BBE11E2A0E0B0E2ECE7F6E602C00590DA
:100240000D92A634B107D9F712E2A6E4B1E201C0DB
:100250001D92A439B107E1F70E94D91A0C943C33DE
:100260000C940000AC0120E007C08091A10885FF3C
:10027000FCCFE093A0082F5FFA01E20FF11DE081AF
:10028000EE2399F708951F920F920FB60F9208B6BA
:100290000F9209B60F920AB60F92112418BE19BE1A
:1002A0001ABEAF92BF92CF92DF92EF92FF920F935E
:1002B0001F932F933F934F935F936F937F938F93EE
:1002C0009F93AF93BF93CF93DF93EF93FF9385E813
:1002D00092E20E94B82C85E892E20E94A02C88232A
:1002E00009F442C185E892E20E94A82C853709F002
:1002F0003BC190E0C92E90E0D92EC5E5D1E2EE24B5
:10030000FF248DE1A82EB12C25C185E892E20E9440
:10031000B82C85E892E20E94A02C8823B1F385E8EE
:1003200092E20E94A82CF80181938F01EC17FD073F
:1003300061F785E892E20E94B82C85E892E20E947B
:10034000A02C8823B1F385E892E20E94A82C888330
:1003500085E892E20E94B82C85E892E20E94A02CE7
:100360008823B1F385E892E20E94A82C19828A833F
:1003700085E892E20E94B82C85E892E20E94A02CC7
:100380008823B1F309811A8185E892E20E94A82CA2
:1003900090E0802B912B89839A8385E892E20E94DA
:1003A000B82C85E892E20E94A02C8823B1F385E85E
:1003B00092E20E94A82C1B828C8385E892E20E9424
:1003C000B82C85E892E20E94A02C8823B1F30B811F
:1003D0001C8185E892E20E94A82C90E0802B912B52
:1003E0008B839C8385E892E20E94B82C85E892E298
:1003F0000E94A02C8823B1F385E892E20E94A82CE9
:100400001D828E8385E892E20E94B82C85E892E2F4
:100410000E94A02C8823B1F30D811E8185E892E211
:100420000E94A82C90E0802B912B8D839E8385E8E1
:1004300092E20E94B82C85E892E20E94A02C8823C8
:10044000B1F385E892E20E94A82C1F82888785E894
:1004500092E20E94B82C85E892E20E94A02C8823A8
:10046000B1F30F81188585E892E20E94A82C90E0F4
:10047000802B912B8F83988785E892E20E94B82C7D
:1004800085E892E20E94A02C8823B1F385E892E2ED
:100490000E94A82C19868A8785E892E20E94B82CCF
:1004A00085E892E20E94A02C8823B1F309851A8581
:1004B00085E892E20E94A82C90E0802B912B8987FE
:1004C0009A8785E892E20E94B82C85E892E20E9421
:1004D000A02C8823B1F385E892E20E94A82C1B8609
:1004E0008C8785E892E20E94B82C85E892E20E940F
:1004F000A02C8823B1F30B851C8585E892E20E942D
:10050000A82C90E0802B912B8B879C8785E892E22A
:100510000E94B82C85E892E20E94A02C8823B1F3B7
:100520001D8585E892E20E94A82C182B1D87CE011C
:100530000F97B6014DE150E00E942F320894E11C64
:10054000F11C8DE190E0C80ED91E6D969BE0E91676
:10055000F10451F0EA9C8001EB9C100DFA9C100D07
:1005600011240A5B1E4DD1CE8091A10885FFFCCFDE
:100570008AE78093A008A5E5B1E240E050E06DE194
:1005800070E098C08091A10885FFFCCF8191809395
:10059000A008EA17FB07B1F78091A10885FFFCCFFF
:1005A0008C918093A0088091A10885FFFCCF1196C3
:1005B0002D913C911297832F992787FD9A958093CF
:1005C000A0088091A10885FFFCCF2093A00880910E
:1005D000A10885FFFCCF13962D913C911497832F92
:1005E000992787FD9A958093A0088091A10885FF9F
:1005F000FCCF2093A0088091A10885FFFCCF159621
:100600002D913C911697832F992787FD9A9580937A
:10061000A0088091A10885FFFCCF2093A0088091BD
:10062000A10885FFFCCF17962D913C911897832F39
:10063000992787FD9A958093A0088091A10885FF4E
:10064000FCCF2093A0088091A10885FFFCCF1996CC
:100650002D913C911A97832F992787FD9A95809326
:10066000A0088091A10885FFFCCF2093A00880916D
:10067000A10885FFFCCF1B962D913C911C97832FE1
:10068000992787FD9A958093A0088091A10885FFFE
:10069000FCCF2093A0088091A10885FFFCCF1D9678
:1006A0008C911D978093A0084F5F5F4F5D964B30F4
:1006B000510551F0469FF001479FF00D569FF00DF8
:1006C0001124EA5BFE4D5ECF8091A10885FFFCCF2F
:1006D0008AE78093A008FF91EF91DF91CF91BF91BE
:1006E000AF919F918F917F916F915F914F913F91CA
:1006F0002F911F910F91FF90EF90DF90CF90BF90BF
:10070000AF900F900ABE0F9009BE0F9008BE0F90D9
:100710000FBE0F901F901895CF92DF92EF92FF922D
:100720000F931F93CF93DF93EC016B01DA01A901C3
:10073000B70194E017C08091080684FF02C092E0E0
:1007400013C08091080685FF02C093E00DC0809120
:10075000080686FF02C091E007C08091080690E07D
:1007600087FFE9CF943039F3F60120812223D9F4B1
:10077000992339F48C91882309F48FC481508C9388
:100780008CC4933039F48C918A3008F086C48F5F22
:100790008C9383C4923009F080C481E0D6018C939D
:1007A000FA0110827AC4213011F5992339F4DA0163
:1007B0008C91813009F071C41C926FC4933039F46C
:1007C000FA018081882309F068C4208366C49230CE
:1007D00059F4DA018C91882319F4F60190835DC4F1
:1007E00083E0D6018C9359C4F601108256C422309E
:1007F00009F453C4233009F040C49130D1F4FB0113
:100800008081882329F4D6019C93F801108245C485
:10081000FB0110826C918DE1689FB0011124CE0123
:10082000860F971F605070404DE150E00E942F32BC
:1008300034C4923021F481E0DB018C932EC49923DF
:1008400009F0F9C1FB018081F8017081882331F43E
:10085000772309F422C4715070831FC4772309F4ED
:100860001CC4713009F057C09C918DE1989FF00134
:100870001124EC0FFD1F8785882351F4808991890D
:10088000883C91050CF009C40196808B918B05C4BE
:10089000813059F48089918923E1883892070CF0DE
:1008A000FCC30A96808B918BF8C3823059F48089FF
:1008B0009189A3E0883E9A070CF0EFC30196808BE4
:1008C000918BEBC3833059F480899189B7E28F30E3
:1008D0009B070CF0E2C30A96808B918BDEC38430B9
:1008E00059F48089918926E0803492070CF0D5C3B1
:1008F0000A96808B918BD1C3853009F0CEC3808955
:100900009189A6E28C3A9A070CF0C7C38C599F4F85
:10091000808B918BC2C3723009F057C09C918DE1DE
:10092000989FF0011124EC0FFD1F8785882359F44F
:1009300082899389B6E080349B070CF0AEC30A9697
:10094000828B938BAAC3813059F48289938926E0E4
:10095000803492070CF0A1C30A96828B938B9DC3BF
:10096000823059F482899389A6E080349A070CF08A
:1009700094C30A96828B938B90C3833059F48289F7
:100980009389B6E080349B070CF087C30A96828B6C
:10099000938B83C3843059F48289938927E286300C
:1009A00092070CF07AC30196828B938B76C38530C5
:1009B00009F073C382899389A6E080349A070CF00A
:1009C0006CC30A96828B938B68C3733009F04AC05C
:1009D0009C918DE1989FF0011124EC0FFD1F8785FC
:1009E000882359F484899589B6E080349B070CF0FC
:1009F00054C30A96848B958B50C3813059F48489F3
:100A0000958926E0803492070CF047C30A96848BC0
:100A1000958B43C3823059F484899589A7E28F303E
:100A20009A070CF03AC30196848B958B36C38330BA
:100A300059F484899589B6E080349B070CF02DC366
:100A40000A96848B958B29C3853009F026C3848947
:100A5000958927E2863092070CF01FC30A96848B93
:100A6000958B1BC3743009F04AC09C918DE1989F0F
:100A7000F0011124EC0FFD1F8785882359F4868926
:100A80009789A6E080349A070CF007C30196868BFD
:100A9000978B03C3813051F48689978983369105FA
:100AA0000CF0FBC20196868B978BF7C2823059F40B
:100AB00086899789B6E080349B070CF0EEC20A96CF
:100AC000868B978BEAC2833059F48689978923E114
:100AD000883892070CF0E1C20A96868B978BDDC2AC
:100AE000853009F0DAC286899789A6E28C3A9A079E
:100AF0000CF0D3C28C599F4F868B978BCEC275302A
:100B000009F04AC09C918DE1989FF0011124EC0FEF
:100B1000FD1F8785882359F4808D918DB6E0803440
:100B20009B070CF0BAC20196808F918FB6C28130BC
:100B300059F4808D918D26E0803492070CF0ADC27F
:100B40000196808F918FA9C2823059F4808D918D4A
:100B5000A6E080349A070CF0A0C20A96808F918F8D
:100B60009CC2833059F4808D918DB6E080349B0710
:100B70000CF093C20196808F918F8FC2853009F05F
:100B80008CC2808D918D27E2863092070CF085C251
:100B90000A96808F918F81C27630E1F59C918DE12C
:100BA000989FF0011124EC0FFD1F9785992339F4CC
:100BB000848D823009F071C281E0848F6EC29130E1
:100BC00031F4848D823009F068C2948F66C292300D
:100BD00059F4828D938DA6E080349A070CF05DC2A3
:100BE0000196828F938F59C2933039F4848D82306D
:100BF00009F053C281E0848F50C2953009F04DC294
:100C0000828D938D833691050CF047C20196828FB9
:100C1000938F43C2773009F040C28C919DE1899F48
:100C2000F0011124EC0FFD1F848D823009F035C2D4
:100C300081E0848F32C2933009F02FC2FB018081A2
:100C4000F8017081882309F040C0763080F48C91DF
:100C500090E02DE130E0829FF001839FF00D929FA4
:100C6000F00D1124EC0FFD1F8785843051F576308F
:100C7000A1F48C9190E02DE130E0829FF001839F00
:100C8000F00D929FF00D1124EC0FFD1F878582302F
:100C9000C1F0853009F001C214C0723008F0FDC106
:100CA0008C9190E02DE130E0829FF001839FF00D68
:100CB000929FF00D1124EC0FFD1F8785843009F001
:100CC000ECC17F5FD8017C93E8C1772309F4E5C1CB
:100CD000713009F053C09C918DE1989FF00111246F
:100CE000EC0FFD1F8785882351F4808991898A3014
:100CF00091050CF4D2C10A97808B918BCEC18130C3
:100D000051F4808991898A3091050CF4C6C10A9703
:100D1000808B918BC2C1823051F4808991898B3054
:100D200091050CF4BAC10197808B918BB6C18330C9
:100D300051F480899189823091050CF4AEC10197FC
:100D4000808B918BAAC1843059F480899189B9EF45
:100D5000813C9B070CF4A1C10A97808B918B9DC1AC
:100D6000853009F09AC180899189843691050CF407
:100D700094C184569040808B918B8FC1723009F062
:100D800055C09C918DE1989FF0011124EC0FFD1F3F
:100D90008785882359F48289938929EF813C9207BA
:100DA0000CF47BC10A97828B938B77C1813059F405
:100DB00082899389A9EF813C9A070CF46EC10A9746
:100DC000828B938B6AC1823051F4828993898A30F5
:100DD00091050CF462C10A97828B938B5EC18330BC
:100DE00059F482899389B9EF813C9B070CF455C172
:100DF0000A97828B938B51C1843051F482899389F5
:100E00008A3091050CF449C10197828B938B45C1BF
:100E1000853009F042C18289938929EF813C92078C
:100E20000CF43BC10A97828B938B37C1733009F066
:100E300048C09C918DE1989FF0011124EC0FFD1F9B
:100E40008785882359F484899589A9EF813C9A077D
:100E50000CF423C10A97848B958B1FC1813059F400
:100E600084899589B9EF813C9B070CF416C10A97D8
:100E7000848B958B12C1823051F484899589181620
:100E800019060CF00AC10197848B958B06C183303B
:100E900059F48489958929EF813C92070CF4FDC0AF
:100EA0000A97848B958BF9C0853009F0F6C0848948
:100EB00095898A3091050CF4F0C00A97848B958B44
:100EC000ECC0743009F047C09C918DE1989FF0010F
:100ED0001124EC0FFD1F8785882351F4868997899B
:100EE000181619060CF0D9C00197868B978BD5C0C0
:100EF000813051F486899789823091050CF4CDC0F8
:100F00000197868B978BC9C0823059F4868997895F
:100F1000A9EF813C9A070CF4C0C00A97868B978B87
:100F2000BCC0833051F4868997898B3091050CF4CD
:100F3000B4C00A97868B978BB0C0853009F0ADC0DE
:100F400086899789843691050CF4A7C08456904011
:100F5000868B978BA2C0753009F046C09C918DE1BD
:100F6000989FF0011124EC0FFD1F8785882351F411
:100F7000808D918D181619060CF08FC00197808F07
:100F8000918F8BC0813051F4808D918D823091058D
:100F90000CF483C00197808F918F7FC0823059F409
:100FA000808D918DB9EF813C9B070CF476C00A9738
:100FB000808F918F72C0833051F4808D918D8230FB
:100FC00091050CF46AC00197808F918F66C08530BF
:100FD00009F063C0808D918D8B3091050CF45DC05C
:100FE0000A97808F918F59C07630C1F59C918DE121
:100FF000989FF0011124EC0FFD1F8785882339F499
:10100000848D813009F049C082E0848F46C08130F0
:1010100039F4848D813009F040C082E0848F3DC076
:10102000823049F4828D938D18161906B4F5019714
:10103000828F938F32C0833031F4848D813069F593
:1010400082E0848F2AC0853041F5828D938D823075
:1010500091051CF10197828F938F1FC07730E9F4BF
:101060008C919DE1899FF0011124EC0FFD1F848D6F
:10107000813099F482E0848F10C0243029F49230BA
:1010800061F0F601108209C080E197E222E330E0CE
:10109000F9013197F1F70197D9F780ED97E022E355
:1010A00030E0F9013197F1F70197D9F781E090E04D
:1010B000DF91CF911F910F91FF90EF90DF90CF9034
:1010C00008950F931F93CF93DF938B01EA01CB0118
:1010D000805C994F81589C4030F457FD04C047E232
:1010E000C031D40764F00E947E2A0E94762A80E0F4
:1010F00090E26EE00E94C02A4FEF5FEF61C087E090
:1011000080930008E0E8F6E082E0858384E0858350
:1011100088E0858381E0868380E293E060E00E943E
:101120008E288823C9F3B801882777FD8095982FEA
:101130000E94112E2AE030EE4EE95FE30E949D2EC0
:101140000E94002F20E030E040E055E40E94122D84
:101150000E94DE2D9B01AC0180E293E0B90140E0EA
:101160000E948528E0E0F8E010A211A220E030E023
:101170000BC08091200890912108815A9740C8F3B4
:1011800010A211A22F5F3F4F2C173D0790F3E0E80C
:10119000F6E081E0858382E0868384E0868388E0D0
:1011A000868380E293E060E00E948E288823C9F362
:1011B00080E293E060E078E040E00E948528AE01A4
:1011C000CA01DF91CF911F910F9108952F923F9205
:1011D0004F925F926F927F928F929F92AF92BF9247
:1011E000CF92DF92EF92FF920F931F93DF93CF93F3
:1011F000CDB7DEB7C65CDB40CDBFDEBFC454D44F35
:1012000088839983CC5BDB40C254D44F6883798355
:10121000CE5BDB40C054D44F48835983C05CDB4075
:101220001901CE53D44F08831983C25CDB40CC53E1
:10123000D44FE882F982C45CDB40CA53D44FC882E1
:10124000C65CDB40CA01805C994F81589C40C0F469
:1012500030EC231639EF33069CF061E4261666E085
:10126000360674F473E10938170754F40A3011058F
:101270003CF01E141F0424F4C7018154964044F02E
:101280000E947E2A0E94762A80E090E26EE085C06D
:10129000C054D44F28813981C05CDB40B901882714
:1012A00077FD8095982F0E94112E2AE030EE4EE9AE
:1012B0005FE30E949D2E0E94002F20E030E040E07E
:1012C00055E40E94122D0E94DE2D6B01B10188278A
:1012D00077FD8095982F0E94112E2AE030EE4EE97E
:1012E0005FE30E949D2E0E94002F20E030E040E04E
:1012F00055E40E94122D0E94DE2D2B01CC53D44FB9
:10130000E881F981C45CDB40BF01882777FD8095C7
:10131000982F0E94112E2AE030EE4EE95FE30E94E2
:101320009D2E0E94002F0E94E32D9B01AC01C6540C
:10133000D44F68837983CA5BDB40C101C054D44F6A
:1013400068817981C05CDB40861B970B18161906F3
:1013500074F4C2018C199D09B9010E94BE2FCB0102
:1013600071E0C754D44F7883C95BDB400CC0C60121
:1013700084199509B9010E94BE2FCB01C754D44FDF
:101380001882C95BDB408D5D954060F00E947E2A2B
:101390000E94762A8FE090E264E10E94C02AEFEF7B
:1013A000FFEFFFC1CE53D44F28813981C25CDB40AF
:1013B000B901882777FD8095982F2F313105ECF002
:1013C0000E94112E9B01AC0160E070E080E89FE379
:1013D0000E94762D20E034E244EF59E40E949D2ED5
:1013E00020E030E44EE45FE30E949D2E0E94002F37
:1013F0000E94E32D3B0181E01CC00E94112E9B0145
:10140000AC0160E070E080E89FE30E94762D20E070
:1014100034E244EF58E40E949D2E20E030E44EE494
:101420005FE30E949D2E0E94002F0E94E32D3B014E
:1014300083E080930008E0E8F6E082E0858384E0C2
:101440008583CA53D44F3881C65CDB40313019F4F0
:1014500088E0868302C088E0858381E0E0E8F6E0EA
:10146000868380E293E060E00E948E288823C9F39F
:1014700080E293E0B60140E00E94852884EC99E088
:1014800022E330E0F9013197F1F70197D9F720E035
:1014900030E042E350E009C080E197E2FA01319781
:1014A000F1F70197D9F72F5F3F4FC254D44F6881AE
:1014B0007981CE5BDB402617370770F37601AA24CB
:1014C000BB24882499246FC080E293E060E00E94EE
:1014D0008E288823C9F380E293E0B70140E00E94A0
:1014E00085281092200810922108C754D44F788183
:1014F000C95BDB40772321F00894E11CF11C03C099
:101500000894E108F108F401EE0FFF1F81E090E07C
:101510008C0F9D1FE80FF91F108211826F012BC0E5
:101520008091280280688093280280912B0280FDA0
:1015300007C0809120089091210886159705A8F38F
:10154000F601008111810115110549F488E292E04C
:1015500060E00E94D927F601808391830CC088E265
:1015600092E060E00E94D927080F191F1595079592
:10157000F60100831183809120089091210886153F
:10158000970570F20894A11CB11CC654D44F288151
:101590003981CA5BDB40A216B30628F00894811C8F
:1015A000911CAA24BB24C754D44F3881C95BDB40AB
:1015B000332329F0E414F5040CF486CF04C04E1450
:1015C0005F040CF481CFE0E8F6E081E0858382E0FF
:1015D000868384E0868388E0868380E293E060E00F
:1015E0000E948E288823C9F380E293E060E078E0CF
:1015F00040E00E9485288091A10885FFFCCF83E010
:101600008093A00820E030E08091A10885FFFCCF06
:10161000C454D44FE881F981CC5BDB40E20FF31F67
:1016200080818093A0082F5F3F4F2F30310561F7F5
:101630008091A10885FFFCCFC254D44F6881798185
:10164000CE5BDB40872F992787FD9A958093A00872
:101650008091A10885FFFCCFC254D44F7881CE5B26
:10166000DB407093A0088091A10885FFFCCFC05497
:10167000D44FE881F981C05CDB408F2F992787FD2B
:101680009A958093A0088091A10885FFFCCFC05453
:10169000D44FF881C05CDB40F093A0088091A10892
:1016A00085FFFCCF832D992787FD9A958093A0080D
:1016B0008091A10885FFFCCF2092A0088091A1080D
:1016C00085FFFCCFCE53D44F28813981C25CDB40EB
:1016D000832F992787FD9A958093A0088091A10870
:1016E00085FFFCCFCE53D44F3881C25CDB403093B2
:1016F000A0088091A10885FFFCCFCC53D44F68810E
:101700007981C45CDB40872F992787FD9A95809368
:10171000A0088091A10885FFFCCFCC53D44F7881DD
:10172000C45CDB407093A0088091A10885FFFCCFCA
:10173000CA53D44F8881C65CDB408093A008809157
:10174000A10885FFFCCF9092A0088091A10885FF99
:10175000FCCF8092A008FE0131969401220F331F26
:101760002E0F3F1F13C08091A10885FFFCCF408141
:101770005181852F992787FD9A958093A0088091A4
:10178000A10885FFFCCF4093A0083296E217F3072B
:1017900051F78091A10885FFFCCF83E08093A008DA
:1017A000F401CF01CA53D44FCDBFDEBFCF91DF913B
:1017B0001F910F91FF90EF90DF90CF90BF90AF906F
:1017C0009F908F907F906F905F904F903F902F9061
:1017D00008952F923F924F925F926F927F928F92D5
:1017E0009F92AF92BF92CF92DF92EF92FF920F93B0
:1017F0001F93DF93CF93CDB7DEB7CA5CDB40CDBF7D
:10180000DEBFC254D44F88839983CE5BDB40C05483
:10181000D44F68837983C05CDB40CE53D44F488378
:101820005983C25CDB40CC53D44F28833983C45CDA
:10183000DB40CA53D44F08831983C65CDB40C853CE
:10184000D44FE882F982C85CDB40C653D44FC882CB
:10185000CA5CDB40CA01805C994F81589C4000F50E
:10186000CC53D44F68817981C45CDB4089EF603C04
:101870007807B4F0615476409CF4C054D44FE881AA
:10188000F981C05CDB4023E1E938F2074CF43A9778
:101890003CF01E141F0424F4B7016154764044F058
:1018A0000E947E2A0E94762A80E090E26EE0CFC0FD
:1018B000CC53D44F88819981C45CDB40CE53D44F44
:1018C000E881F981C25CDB408E1B9F0B9F0144279E
:1018D00037FD4095542FCC53D44F68817981C45C37
:1018E000DB405B01CC24B7FCC094DC2C1816190635
:1018F000B4F5CA01B9010E94112E2AE030EE4EE97A
:101900005FE30E949D2E0E94002F20E030E040E027
:1019100055E40E94122D0E94DE2DC754D44F6883D7
:101920007983C95BDB40C601B5010E94112E2AE014
:1019300030EE4EE95FE30E949D2E0E94002F20E0D2
:1019400030E040E055E40E94122D0E94DE2D1B0184
:1019500071E0C554D44F7883CB5BDB4034C0CA01FF
:10196000B9010E94112E2AE030EE4EE95FE30E9499
:101970009D2E0E94002F20E030E040E055E40E94C0
:10198000122D0E94DE2D1B01C601B5010E94112EF1
:101990002AE030EE4EE95FE30E949D2E0E94002F68
:1019A00020E030E040E055E40E94122D0E94DE2D40
:1019B000C754D44F68837983C95BDB40C554D44F87
:1019C0001882CB5BDB40C853D44FE881F981C85CF7
:1019D000DB40BF01882777FD8095982F0E94112E4C
:1019E0002AE030EE4EE95FE30E949D2E0E94002F18
:1019F0000E94E32D9B01AC01C454D44F68837983CA
:101A0000CC5BDB40CA53D44FE881F981C65CDB4034
:101A1000EE0FFF1FC101C754D44F68817981C95BA4
:101A2000DB40861B970BB9010E94BE2FE69FC001C9
:101A3000E79F900DF69F900D11248D5D954060F00D
:101A40000E947E2A0E94762A8FE090E264E10E9442
:101A5000C02AEFEFFFEF20C2C054D44FE881F981D4
:101A6000C05CDB40BF01882777FD8095982F7F976A
:101A7000ECF00E94112E9B01AC0160E070E080E868
:101A80009FE30E94762D20E034E244EF59E40E9467
:101A90009D2E20E030E44EE45FE30E949D2E0E94E4
:101AA000002F0E94E32D2B0181E01CC00E94112E0B
:101AB0009B01AC0160E070E080E89FE30E94762D1E
:101AC00020E034E244EF58E40E949D2E20E030E410
:101AD0004EE45FE30E949D2E0E94002F0E94E32DA2
:101AE0002B0183E080930008C554D44FF881CB5B71
:101AF000DB40FF2311F4610106C0C754D44FC880F6
:101B0000D980C95BDB40E0E8F6E082E0858384E0D1
:101B10008583C653D44F2881CA5CDB40213019F439
:101B200088E0868302C088E0858381E0E0E8F6E013
:101B3000868380E293E060E00E948E288823C9F3C8
:101B400080E293E0B60140E00E94852884EC99E0B1
:101B500022E330E0F9013197F1F70197D9F7CA5341
:101B6000D44FA880B980C65CDB40AA0CBB1C66249D
:101B700077248824992480E293E060E00E948E28F4
:101B80008823C9F380E293E0B60140E00E948528F3
:101B90001092200810922108C554D44F3881CB5B95
:101BA000DB40332339F00894C11CD11CC214D30488
:101BB00044F10DC00894C108D108C754D44F6881BE
:101BC0007981C95BDB406C157D0574F41AC00894FB
:101BD000A108B108A114B10409F465C0C554D44FDB
:101BE0001882CB5BDB400DC00894A108B108A1149A
:101BF000B10409F458C071E0C554D44F7883CB5B6D
:101C0000DB40F401EE0FFF1F81E090E08C0F9D1F81
:101C1000E80FF91F108211827F012BC080912802EA
:101C200080688093280280912B0280FD07C08091FC
:101C300020089091210884159505A8F3F7010081EB
:101C400011810115110549F488E292E060E00E94DB
:101C5000D927F701808391830CC088E292E060E08D
:101C60000E94D927080F191F15950795F7010083C2
:101C7000118380912008909121088415950570F2B8
:101C80000894611C711CC454D44F28813981CC5BE9
:101C9000DB406216730608F46ECF0894811C911C19
:101CA0006624772468CFE0E8F6E081E0858382E06F
:101CB000868384E0868388E0868380E293E060E028
:101CC0000E948E288823C9F380E293E060E078E0E8
:101CD00040E00E9485288091A10885FFFCCF81E02B
:101CE0008093A00820E030E08091A10885FFFCCF20
:101CF000C254D44FE881F981CE5BDB40E20FF31F81
:101D000080818093A0082F5F3F4F2F30310561F70E
:101D10008091A10885FFFCCFC054D44F68817981A0
:101D2000C05CDB40872F992787FD9A958093A00898
:101D30008091A10885FFFCCFC054D44F7881C05C4E
:101D4000DB407093A0088091A10885FFFCCFCE53A3
:101D5000D44FE881F981C25CDB408F2F992787FD42
:101D60009A958093A0088091A10885FFFCCFCE535F
:101D7000D44FF881C25CDB40F093A0088091A108A9
:101D800085FFFCCFCC53D44F28813981C45CDB4024
:101D9000832F992787FD9A958093A0088091A108A9
:101DA00085FFFCCFCC53D44F3881C45CDB403093EB
:101DB000A0088091A10885FFFCCFCA53D44F688149
:101DC0007981C65CDB40872F992787FD9A958093A0
:101DD000A0088091A10885FFFCCFCA53D44F788119
:101DE000C65CDB407093A0088091A10885FFFCCF02
:101DF000C853D44FE881F981C85CDB408F2F992705
:101E000087FD9A958093A0088091A10885FFFCCF5B
:101E1000C853D44FF881C85CDB40F093A008809190
:101E2000A10885FFFCCFC653D44F2881CA5CDB4094
:101E30002093A0088091A10885FFFCCF9092A00874
:101E40008091A10885FFFCCF8092A008FE01319609
:101E50009401220F331F2E0F3F1F13C08091A10842
:101E600085FFFCCF40815181852F992787FD9A9569
:101E70008093A0088091A10885FFFCCF4093A00823
:101E80003296E217F30751F78091A10885FFFCCF46
:101E900081E08093A008F401CF01C653D44FCDBF99
:101EA000DEBFCF91DF911F910F91FF90EF90DF90F8
:101EB000CF90BF90AF909F908F907F906F905F90EA
:101EC0004F903F902F9008952F923F924F925F92A4
:101ED0006F927F928F929F92AF92BF92CF92DF923A
:101EE000EF92FF920F931F93DF93CF93CDB7DEB79F
:101EF000CA50D840CDBFDEBFC450D84F8883998325
:101F0000CC5FD740C250D84F68837983CE5FD7402B
:101F1000C050D84F48835983C050D840CE5FD74F68
:101F200028833983C250D840CC5FD74F08831983A8
:101F3000C450D840CA5FD74FE882F982C650D84013
:101F4000C85FD74FC882C850D840CA01805C994F3B
:101F500081589C40D0F4CE5FD74F48815981C25000
:101F6000D84089EF403C580784F0415456406CF407
:101F7000693C710554F4161617063CF401541640DA
:101F800024F497012154364044F00E947E2A0E9496
:101F9000762A80E090E26EE0BEC0C050D84FE88163
:101FA000F981C050D840BF01882777FD8095982FD0
:101FB0000E94112E0E94002F20E030E040E055E406
:101FC0000E94122D0E94DE2D7B01CE5FD74F28810B
:101FD0003981C250D840B901882777FD8095982F64
:101FE0000E94112E0E94002F20E030E040E055E4D6
:101FF0000E94122D0E94DE2DC950D84F688379832C
:10200000C75FD740CE5FD74F88819981C250D840F3
:10201000C050D84F48815981C050D840841B950B7F
:10202000181619065CF5CA5FD74FE881F981C650CA
:10203000D840BF01882777FD8095982F0E94112EE8
:102040000E94002F0E94DE2D8B01CC5FD74F28818C
:102050003981C450D840B901882777FD8095982FE1
:102060000E94112E0E94002F0E94DE2D5B0131E0A4
:10207000C750D84F3883C95FD7402DC0CA5FD74FEC
:1020800068817981C650D840709561957F4F8827C7
:1020900077FD8095982F0E94112E0E94002F0E949C
:1020A000DE2D8B01CC5FD74F68817981C450D84039
:1020B000709561957F4F882777FD8095982F0E94B6
:1020C000112E0E94002F0E94DE2D5B01C750D84FB9
:1020D0001882C95FD740C50162E070E00E94D22F2C
:1020E00088249924861A970AC950D84F88819981E3
:1020F000C75FD7408E199F09880D991DB8010E94AE
:10210000D22F655F714060F00E947E2A0E94762A7D
:102110008FE090E264E10E94C02A2FEF3FEFF1C20E
:10212000C250D84F28813981CE5FD740220F331F4C
:10213000442737FD4095542F60E874E88EE190E025
:102140000E94E52FCA01B9010E940F2E0E94002FA4
:102150000E94DE2D9B01AC01213583EC380780E025
:10216000480780E058072CF481E08093000869015B
:1021700049C0213A96E8390791E0490790E05907AC
:1021800054F482E080930008DA01C901B595A7955F
:102190009795879536C02134EDE03E07E3E04E0782
:1021A000E0E05E076CF483E080930008DA01C90187
:1021B000E2E0B595A79597958795EA95D1F721C067
:1021C0002138FAE13F07F6E04F07F0E05F076CF4D3
:1021D00084E080930008DA01C90173E0B595A79502
:1021E000979587957A95D1F70CC085E08093000884
:1021F000DA01C90166E0B595A795979587956A9527
:10220000D1F76C01E0E8F6E082E0858384E0858325
:10221000C85FD74F2881C850D840213019F488E0D2
:10222000868302C088E0858381E0E0E8F6E086836B
:1022300080ED97E022E330E0F9013197F1F7019763
:10224000D9F734016E0C7F1CAE01475F5B4FCB505A
:10225000D84F48835983C55FD740480123014A0CB2
:102260005B1CCE018196CD50D84F88839983C35F84
:10227000D740CF50D84F48835983C15FD7401C0106
:10228000C650D84F18821982CA5FD74000E010E0CC
:10229000C75FD74F88839983C950D84080E293E0C5
:1022A00060E00E948E288823C9F380E293E0B301A6
:1022B00040E00E9485281092200810922108C75003
:1022C000D84F9881C95FD740992351F0C950D84F52
:1022D000E881F981C75FD740E415F505A4F5D0C0C2
:1022E000C950D84F28813981C75FD740421653065D
:1022F00054F5C6C08091280280688093280280919E
:102300002B0280FD07C080912008909121088C1538
:102310009D05A8F388E292E060E00E94D927980129
:102320002F5F3F4F2031310511F420E030E0000FE6
:10233000111F41E050E04C0F5D1F040F151FF80105
:1023400080839183890180912008909121088C15C8
:102350009D0580F2F1011082118220E030E05E01E3
:102360000894A11CB11C7501F701819191917F0125
:10237000280F391FC75FD74F48815981C950D840AE
:10238000E417F50789F7F1012083318380E293E0B8
:1023900060E00E948E288823C9F380E293E0B201B6
:1023A00040E00E948528109220081092210829C040
:1023B0008091280280688093280280912B0280FD02
:1023C00007C080912008909121088C159D05A8F3E5
:1023D00088E292E060E00E94D92798012F5F3F4F8A
:1023E0002031310511F420E030E0000F111F41E0F1
:1023F00050E04C0F5D1F040F151FF801808391837F
:10240000890180912008909121088C159D0580F20A
:10241000CF50D84FE881F981C15FD7401082118237
:1024200020E030E0F501819191915F01280F391F83
:10243000EE15FF05B9F7CF50D84FE881F981C15F9C
:10244000D74021933193CF50D84FE883F983C15FB0
:10245000D740680C791CC650D84F28813981CA5F93
:10246000D7402F5F3F4FC650D84F28833983CA5F6C
:10247000D740480C591C42E050E0240E351E0ECFC8
:10248000E0E8F6E081E0858382E0868384E086836D
:1024900088E0868380E293E060E00E948E288823B3
:1024A000C9F380E293E060E078E040E00E94852894
:1024B0008091A10885FFFCCF1092A00820E030E0B9
:1024C0008091A10885FFFCCFC450D84FE881F981E5
:1024D000CC5FD740E20FF31F80818093A0082F5F6D
:1024E0003F4F2F30310561F78091A10885FFFCCF68
:1024F0001092A0088091A10885FFFCCFC250D84F50
:102500005881CE5FD7405093A0088091A10885FFE5
:10251000FCCFC050D84FE881F981C050D8408F2FF0
:10252000992787FD9A958093A0088091A10885FF3F
:10253000FCCFC050D84FF881C050D840F093A008CD
:102540008091A10885FFFCCFCE5FD74F28813981CC
:10255000C250D840832F992787FD9A958093A00871
:102560008091A10885FFFCCFCE5FD74F3881C25044
:10257000D8403093A0088091A10885FFFCCFCC5FA4
:10258000D74F48815981C450D840852F992787FD5E
:102590009A958093A0088091A10885FFFCCFCC5F1D
:1025A000D74F5881C450D8405093A0088091A108BB
:1025B00085FFFCCFCA5FD74FE881F981C650D8406C
:1025C0008F2F992787FD9A958093A0088091A10865
:1025D00085FFFCCFCA5FD74FF881C650D840F09333
:1025E000A0088091A10885FFFCCFC85FD74F288144
:1025F000C850D8402093A0088091A10885FFFCCF47
:10260000C550D84F3881CB5FD7403093A008809118
:10261000A10885FFFCCFC650D84F4881CA5FD7407C
:102620004093A008AE01475F5B4FC650D84F8881EA
:102630009981CA5FD740880F991F480F591F4BC017
:102640008091A10885FFFCCFCD50D84FE881F9815A
:10265000C35FD74020813181832F992787FD9A95C9
:102660008093A0088091A10885FFFCCF2093A0084B
:102670008091A10885FFFCCFCB50D84FE881F9812C
:10268000C55FD74020813181832F992787FD9A9597
:102690008093A0088091A10885FFFCCF2093A0081B
:1026A000CB50D84F28813981C55FD7402E5F3F4F2F
:1026B000CB50D84F28833983C55FD740CD50D84FF2
:1026C00088819981C35FD7400296CD50D84F8883C7
:1026D0009983C35FD740CB50D84FE881F981C55F5C
:1026E000D740E417F50709F0ABCF8091A10885FF2B
:1026F000FCCF1092A008C650D84F28813981CA5FFC
:10270000D740C901C65FD74FCDBFDEBFCF91DF91A4
:102710001F910F91FF90EF90DF90CF90BF90AF90FF
:102720009F908F907F906F905F904F903F902F90F1
:1027300008952F923F924F925F926F927F928F9265
:102740009F92AF92BF92CF92DF92EF92FF920F9340
:102750001F93DF93CF93CDB7DEB76997CDBFDEBFB1
:102760008A879B876C877D874E875F87288B398B0D
:102770000A8B1B8BEC8AFD8ACE8AAF8A2DB73EB7B7
:10278000288F398F5701CC24B7FCC094DC2CC601AC
:10279000B5010E94112E7B018C01EC85FD85BF01E6
:1027A000882777FD8095982F0E94112E2FE632E121
:1027B00043E85AE30E949D2EA80197010E949D2E96
:1027C0000E94002F0E94E32D688779872889398924
:1027D000B901882777FD8095982F0E94112E2FE64A
:1027E00032E143E85AE30E949D2EA80197010E941E
:1027F0009D2E0E94002F0E94E32D6E837F83EA8925
:10280000FB89BF01882777FD8095982F0E94112EA4
:102810002FE632E143E85AE30E949D2EA80197017A
:102820000E949D2E0E94002F0E94E32D6C837D83C9
:102830008E809F8028853985820E931E3B01680C0F
:10284000791C3E89832F90E0869D2001879D500C46
:10285000969D500C11248DED481685E0580660F0C9
:102860000E947E2A0E94762A8FE090E26EE00E940B
:10287000C02A2FEF3FEFF8C1C201880F991FEDB7B3
:10288000FEB7E81BF90BEDBFFEBF2DB63EB60894B0
:10289000211C311C2E853F85B901882777FD809545
:1028A000982F0E94112E2AE030EE4EE95FE30E943D
:1028B0009D2E0E94002F20E030E040E055E40E9471
:1028C000122D0E94DE2D6A837B8360E271EA87E02D
:1028D00090E0A60195010E940730CA01B9010E944B
:1028E000112E0E94002F0E94E32D6B0183E0809344
:1028F0000008E0E8F6E082E0858384E085833F8994
:10290000313019F488E0868302C088E0858381E055
:10291000E0E8F6E0868380E293E060E00E948E28A3
:102920008823C9F380E293E060E078E040E00E9411
:1029300085281982AA24BB24BFC0109220081092B7
:10294000210818C080912802806880932802809115
:102950002B0280FD07C080912008909121088C15E2
:102960009D05A8F388E292E060E00E94D927F80173
:102970008083918380912008909121088C159D057A
:1029800008F30894E11CF11C0E5F1F4F2885398560
:10299000E216F30690F289010A0D1B1D80E293E016
:1029A00060E00E948E288823C9F380E293E06A8168
:1029B0007B8140E00E948528000F111F020D131D2E
:1029C000EE24FF2429C0109220081092210818C07C
:1029D0008091280280688093280280912B0280FDDC
:1029E00007C080912008909121088C159D05A8F3BF
:1029F00088E292E060E00E94D927F8018083918309
:102A000080912008909121088C159D0508F3089469
:102A1000E11CF11C0E5F1F4F2E813F81E216F30671
:102A200090F280E293E060E00E948E288823C9F350
:102A300080E293E060E078E040E00E948528840135
:102A4000000F111F020D131DEE24FF2429C0109248
:102A500020081092210818C0809128028068809375
:102A6000280280912B0280FD07C080912008909160
:102A700021088C159D05A8F388E292E060E00E9491
:102A8000D927F801808391838091200890912108B3
:102A90008C159D0508F30894E11CF11C0E5F1F4F77
:102AA0002C813D81E216F30690F2A60CB71C398109
:102AB0003F5F3983860C971C89819E89891740F472
:102AC0008501000F111F020D131DEE24FF245ECFA0
:102AD000E0E8F6E081E0858382E0868384E0868317
:102AE00088E0868380E293E060E00E948E2888235D
:102AF000C9F380E293E060E078E040E00E9485283E
:102B00008091A10885FFFCCF85E08093A00820E09C
:102B100030E08091A10885FFFCCFEA85FB85E20FBC
:102B2000F31F80818093A0082F5F3F4F2F30310526
:102B300081F78091A10885FFFCCFEC85FD858F2F63
:102B4000992787FD9A958093A0088091A10885FF19
:102B5000FCCFFC85F093A0088091A10885FFFCCFF5
:102B60002E853F85832F992787FD9A958093A0080E
:102B70008091A10885FFFCCF3E853093A00880910D
:102B8000A10885FFFCCFE889F9898F2F992787FD58
:102B90009A958093A0088091A10885FFFCCFF889C1
:102BA000F093A0088091A10885FFFCCF2A893B897A
:102BB000832F992787FD9A958093A0088091A1087B
:102BC00085FFFCCF3A893093A0088091A10885FF4A
:102BD000FCCFEC89FD898F2F992787FD9A958093EB
:102BE000A0088091A10885FFFCCFFC89F093A00884
:102BF0008091A10885FFFCCF2E892093A0088091A9
:102C0000A10885FFFCCF3F893093A0088091A108DF
:102C100085FFFCCF5092A0088091A10885FFFCCFD2
:102C20004092A008F10120E030E011C08091A1089D
:102C300085FFFCCF908181818093A0088091A108BD
:102C400085FFFCCF9093A0082F5F3F4F329624154D
:102C5000350560F38091A10885FFFCCF85E0809366
:102C6000A0088E89282F30E0C901E88DF98DEDBFCD
:102C7000FEBF6996CDBFDEBFCF91DF911F910F914F
:102C8000FF90EF90DF90CF90BF90AF909F908F908C
:102C90007F906F905F904F903F902F9008952F926C
:102CA0003F924F925F926F927F928F929F92AF92DC
:102CB000BF92CF92DF92EF92FF920F931F93DF9319
:102CC000CF93CDB7DEB7CF5ED040CDBFDEBFCF5202
:102CD000DF4F88839983C15DD040CD52DF4F688339
:102CE0007983C35DD040CB52DF4F48835983C55DA4
:102CF000D040C952DF4F28833983C75DD040C752C7
:102D0000DF4F08831983C95DD040C552DF4FE88289
:102D1000F982CB5DD040C352DF4FC882D982CD5DEE
:102D2000D040C152DF4FA882CF5DD0402DB73EB713
:102D3000CC51DF4F28833983C45ED040B801882747
:102D400077FD8095982F0E94112E0E94002F20E081
:102D500030E040E055E40E94122D0E94DE2D2B0150
:102D6000CB52DF4F48815981C55DD040BA018827D9
:102D700077FD8095982F0E94112E0E94002F0E94AF
:102D8000DE2D8B01C701C752DF4FA881B981C95D14
:102D9000D0408A1B9B0B1816190634F4B6018827FD
:102DA00077FD8095982F0DC0C352DF4F68817981E0
:102DB000CD5DD040709561957F4F882777FD8095D8
:102DC000982F0E94112E0E94002F0E94DE2DC753C3
:102DD000DF4F68837983C95CD04082E390E0CD52B5
:102DE000DF4FE881F981C35DD040E89F9001E99F02
:102DF000300DF89F300D1124442737FD4095542F96
:102E000060E874E88EE190E00E94E52FCA01B90104
:102E10000E940F2E0E94002F0E94DE2DCA51DF4F0C
:102E20006883C65ED040C951DF4F7883C75ED0400B
:102E300081E080930008C552DF4F28813981CB5D46
:102E4000D040B901882777FD8095982F0E94112ED8
:102E50000E94002F20E030E040E055E40E94122D57
:102E60000E94DE2DDC01CB0184199509C753DF4F89
:102E700068817981C95CD0400E94D22FAB014F5F3D
:102E80005F4FC553DF4F48835983CB5CD040CA01A5
:102E9000880F991FADB7BEB7A81BB90BADBFBEBF9A
:102EA000EDB7FEB73196C052DF4FE883F983C05EBD
:102EB000D0402DB73EB7281B390B2DBF3EBF4DB7B5
:102EC0005EB74F5F5F4FCE51DF4F48835983C25E7D
:102ED000D0403E010894611C711CCC24DD244801C3
:102EE000AA2497FCA094BA2CB601882777FD809578
:102EF000982F0E94112E2DEF3DEA40E05EE30E94E4
:102F00009D2E0E94202F7B018C01C501B4010E94DF
:102F1000112E9B01AC01C801B7010E949D2E0E9499
:102F2000002F0E94DE2D640D751DD3016D937D93DE
:102F30003D010894C11CD11CB2E3CB16D104A1F60B
:102F4000E0E8F6E082E0858384E08583C152DF4FCC
:102F50002881CF5DD040213019F488E0868302C0FB
:102F600088E0858381E0E0E8F6E0868380E293E014
:102F700060E00E948E288823C9F380E293E0B201CA
:102F800040E00E94852884EC99E022E330E0F901DA
:102F90003197F1F70197D9F7C353DF4F1882CD5C12
:102FA000D040AE014B595F4FC251DF4F4883598328
:102FB000CE5ED040CE0187539F4FC451DF4F8883F0
:102FC0009983CC5ED040C952DF4F28813981C75DDB
:102FD000D040442737FD4095542FC851DF4F2883F8
:102FE00039834A835B83C85ED04062C1C153DF4FDF
:102FF000E881F981CF5CD040EE0FFF1FC052DF4F58
:10300000A881B981C05ED040AE0FBF1F1D921C9237
:10301000CE51DF4F48815981C25ED040E40FF51F89
:1030200010821182C253DF4F1882CE5CD0408824B8
:1030300099245401442455243201C7C080E293E00E
:1030400060E00E948E288823C9F3D7011D921C924C
:10305000F6016081718180E293E040E00E94852862
:1030600010922008109221082BC0809128028068BD
:103070008093280280912B0280FD07C08091200858
:103080009091210882179307A8F3D7010D911C9105
:103090000115110549F488E292E060E00E94D92709
:1030A000F701808391830CC088E292E060E00E9487
:1030B000D927080F191F15950795D7010D931C9354
:1030C0008091200890912108CA51DF4F2881C65E67
:1030D000D040C951DF4F3881C75ED0408217930777
:1030E00020F2E2E0F0E0EE0EFF1ECE0EDF1EC45135
:1030F000DF4F28813981CC5ED040E216F30609F01B
:103100009DCF40E020E000E0D1016D917C91E02F67
:10311000F0E0EE0FFF1F85E690E08C0F9D1FE80F9B
:10312000F91F80819181861797070CF4042FE22FF5
:10313000F0E0EE0FFF1FA5E6B0E0AC0FBD1FEA0FF9
:10314000FB1F80819181681779070CF4242F4F5F52
:10315000E2E0F0E02E0E3F1E4233B1F610E030E028
:10316000D801AA0FBB1F45E650E04C0F5D1FA40F0E
:10317000B51FF901EE0FFF1FE40FF51F8D919C9114
:1031800060817181861B970B95958795AA2797FD7E
:10319000A095BA2F880E991EAA1EBB1E200F311FA4
:1031A00035952795442737FD4095542F420E531EE1
:1031B000641E751EC253DF4F5881CE5CD0405F5FE6
:1031C000C253DF4F5883CE5CD040C253DF4FA8813B
:1031D000CE5CD0408A2F90E0C952DF4FE881F98160
:1031E000C75DD0408E179F075CF475E6272E312C03
:1031F0002C0E3D1E71016E010894C11CD11C1ECF06
:10320000C153DF4F08811981CF5CD040000F111FDF
:10321000C052DF4FE880F980C05ED040E00EF11E62
:10322000C501B401C851DF4F288139814A815B81D2
:10323000C85ED0400E940730D7012D933C93CE51F9
:10324000DF4FE881F981C25ED0400E0F1F1FC3011E
:10325000B201C851DF4F288139814A815B81C85E44
:10326000D0400E940730D8012D933C93FE01319647
:1032700080819181C753DF4F28813981C95CD0405B
:10328000820F931F81939193C251DF4F48815981DF
:10329000CE5ED040E417F50759F7C353DF4F58818E
:1032A000CD5CD0405F5FC353DF4F5883CD5CD040CF
:1032B000C353DF4F9881CD5CD040892F90E0C1533C
:1032C000DF4F88839983CF5CD040C553DF4FA881FF
:1032D000B981CB5CD0408A179B070CF487CEE0E81D
:1032E000F6E081E0858382E0868384E0868388E05F
:1032F000868380E293E060E00E948E288823C9F3F1
:1033000080E293E060E078E040E00E9485288091D0
:10331000A10885FFFCCF82E08093A00820E030E088
:103320008091A10885FFFCCFCF52DF4FE881F98162
:10333000C15DD040E20FF31F80818093A0082F5F12
:103340003F4F2F30310561F78091A10885FFFCCFF9
:10335000CD52DF4FE881F981C35DD0408F2F99278F
:1033600087FD9A958093A0088091A10885FFFCCFE6
:10337000CD52DF4FF881C35DD040F093A00880911B
:10338000A10885FFFCCFCB52DF4F28813981C55D75
:10339000D040832F992787FD9A958093A00880912C
:1033A000A10885FFFCCFCB52DF4F3881C55DD040EF
:1033B0003093A0088091A10885FFFCCFC952DF4F50
:1033C00048815981C75DD040852F992787FD9A95FF
:1033D0008093A0088091A10885FFFCCFC952DF4FE0
:1033E0005881C75DD0405093A0088091A10885FF07
:1033F000FCCFC752DF4FA881B981C95DD0408B2F68
:10340000992787FD9A958093A0088091A10885FF50
:10341000FCCFC752DF4FB881C95DD040B093A00840
:103420008091A10885FFFCCFC552DF4FE881F9816B
:10343000CB5DD0408F2F992787FD9A958093A00868
:103440008091A10885FFFCCFC552DF4FF881CB5D8D
:10345000D040F093A0088091A10885FFFCCFC35213
:10346000DF4F28813981CD5DD040832F992787FD9B
:103470009A958093A0088091A10885FFFCCFC35244
:10348000DF4F3881CD5DD0403093A0088091A108F6
:1034900085FFFCCFC152DF4F4881CF5DD0404093C4
:1034A000A0088091A10885FFFCCF1092A008809110
:1034B000A10885FFFCCFC353DF4F5881CD5CD040BE
:1034C0005093A00820E03DC08091A10885FFFCCF6B
:1034D000A22FB0E0FD01EE0FFF1FC052DF4F888129
:1034E0009981C05ED040E80FF91F0190F081E02D76
:1034F0008F2F992787FD9A958093A0088091A10826
:1035000085FFFCCFE093A0088091A10885FFFCCF48
:10351000AA0FBB1FCE51DF4FE881F981C25ED040B8
:10352000AE0FBF1FED91FC918F2F992787FD9A95C4
:103530008093A0088091A10885FFFCCFE093A008AC
:103540002F5FC353DF4FF881CD5CD0402F1708F4B5
:10355000BBCF8091A10885FFFCCF82E08093A008BB
:10356000C153DF4F8881CF5CD040C053DF4F98817B
:10357000C05DD040CC51DF4F28813981C45ED0403E
:103580002DBF3EBFC151DF4FCDBFDEBFCF91DF9119
:103590001F910F91FF90EF90DF90CF90BF90AF9071
:1035A0009F908F907F906F905F904F903F902F9063
:1035B00008952F923F924F925F926F927F928F92D7
:1035C0009F92AF92CF92DF92EF92FF920F931F9351
:1035D000DF93CF93CDB7DEB76797CDBFDEBFE0E017
:1035E000F6E090E19283948B80E28283958B80E475
:1035F0008283968B80E88283978BE0E8F6E032E066
:10360000318321E0218394E0918388E081833683B4
:1036100025839683868380E293E068E040E020E0A3
:1036200000E00E94732880E293E061E00E948E280F
:103630008823C9F380E293E060E078E041E00E94F3
:10364000852880E293E060E00E948E288823C9F3F9
:1036500080E293E060E078E040E00E948528E0E4CA
:10366000F6E088E0818384E0828385E892E260EA84
:1036700078E041E00E94662CE0EAF8E083E0858390
:103680008091A3088F7C806183838CE0868317827E
:103690008091A408806184838091A40888608483D9
:1036A00080E092E00E94A627E0E0F2E08091010233
:1036B000897E8061818380910402887F8160848318
:1036C000809102028F7C8061828380912002807EC3
:1036D00082608093200280912802807E82608093A5
:1036E000280281E0E0E2F2E0818381E1E8E2F2E0B9
:1036F0008183809100028160809300020E944B2AA6
:103700000E944B2A0E947E2A0E94762A84E290E23E
:1037100069E00E94C02A80E197E222E330E0F901EB
:103720003197F1F70197D9F719821A821B821C820F
:103730001D8200E010E0B80160507040C8018A5B53
:103740009E4D4DE150E00E942332035E1F4F21E069
:103750000F33120781F78091A2008160E0EAF0E068
:103760008283789400E010E0B80160507040C80196
:103770008A5B9E4D4DE150E00E942F32035E1F4F49
:1037800031E00F33130781F712E0212E312C2C0E7C
:103790003D1EB8E08B2E912C8C0E9D1EA8E86A2E43
:1037A000A0E27A2EFAE74F2EF0E25F2E898188237D
:1037B00009F087C00E947E2A0E94762A8A81823080
:1037C00018F0182F12500AC0882339F48EE290E2C4
:1037D00061E00E94C02A10E006C010E080E390E2A1
:1037E00061E00E94C02A012F10E08DE190E0FC0111
:1037F0000E9FC0010F9F900D1E9F900D11248A5B9C
:103800009E4D6FE00E94C02A80E061E00E94862AFF
:103810008A81813019F48EE290E202C080E390E266
:1038200061E00E94C02A0F5F1F4F8DE190E09C0174
:10383000029FC001039F900D129F900D1124015013
:1038400010408A5B9E4D6FE00E94C02A80E062E0DB
:103850000E94862A8A81823018F08EE290E202C0AD
:1038600080E390E261E00E94C02A0E5F1F4F8DE16D
:1038700090E0FC010E9FC0010F9F900D1E9F900DC8
:1038800011248A5B9E4D6FE00E94C02A86E491E27B
:10389000BE016F5F7F4FA1019E012D5F3F4F8E01E3
:1038A0000C5F1F4FE5E0EE2EF12CEC0EFD1EB6E096
:1038B000CB2ED12CCC0EDD1E0E948C03019731F74C
:1038C00075CF813009F051C00E947E2A0E94762A6D
:1038D0008A812DE1829FC00111248A5B9E4D6FE099
:1038E0000E94C02A80E061E00E94862A8B818823A2
:1038F00019F48EE290E202C080E390E261E00E945F
:10390000C02A82E390E265E00E94C02A80E062E083
:103910000E94862A8B81813019F48EE290E202C0E7
:1039200080E390E261E00E94C02A88E390E264E0D4
:103930000E94C02A86E491E2BE016F5F7F4FA10121
:103940009E012D5F3F4F8E010C5F1F4FA5E0EA2EB9
:10395000F12CEC0EFD1EF6E0CF2ED12CCC0EDD1E90
:103960000E948C03019731F721CF823009F09BC070
:103970000E947E2A0E94762A8A812DE1829FC001C0
:1039800011248A5B9E4D6FE00E94C02A80E061E0B6
:103990000E94862A8DE390E26AE00E94C02A8A8112
:1039A00090E02DE130E0829FF001839FF00D929F27
:1039B000F00D1124EA5BFE4D8785882379F4608938
:1039C0007189428953892489358906891789E08C50
:1039D000F18CCF01C48C0E94640F50C0813079F407
:1039E00060897189428953892489358906891789B3
:1039F000E08CF18CCF01C48C0E94E90B3FC0823077
:103A000089F46089718942895389248935890689B5
:103A10001789E08CF18CC28CD38CCF01A48C0E94CE
:103A20004F162CC0833079F460897189428953899B
:103A30002489358906891789E08CF18CCF01C48CE3
:103A40000E94E6081BC0843041F460897189428974
:103A50005389CF010E94610811C0853089F46089C3
:103A60007189428953892489358906891789E08CAF
:103A7000F18CCF01C28CA48C0E9499138E839F83FA
:103A80008E819F818F5F9F4F59F480E197E222E3FF
:103A900030E0F9013197F1F70197D9F783E001C0E0
:103AA00084E0898383CE833011F00C946F270E94C9
:103AB0007E2A0E94762A8A812DE1829FC0011124EC
:103AC0008A5B9E4D6FE00E94C02A80E061E00E9408
:103AD000862A8C81882309F046C08D81882319F4B9
:103AE0008EE290E202C089E490E261E00E94C02A86
:103AF0008BE490E26CE00E94C02A8A8190E02DE184
:103B000030E0829FF001839FF00D929FF00D112411
:103B1000EA5BFE4D8785882319F488E590E219C099
:103B2000813021F48CE590E262E014C0823019F417
:103B30008FE590E20EC0833019F483E690E209C06D
:103B4000843019F487E690E204C0853029F481E7D7
:103B500090E263E00E94C02A80E062E00E94862A30
:103B600080E390E248C0813009F02AC180E390E20E
:103B700061E00E94C02A8BE490E26CE00E94C02ABF
:103B80008A8190E02DE130E0829FF001839FF00D6B
:103B9000929FF00D1124EA5BFE4D8785882319F46E
:103BA00088E590E219C0813021F48CE590E262E072
:103BB00014C0823019F48FE590E20EC0833019F4FE
:103BC00083E690E209C0843019F487E690E204C0ED
:103BD000853029F481E790E263E00E94C02A80E00A
:103BE00062E00E94862A8D81882319F48EE290E299
:103BF00002C089E490E261E00E94C02A8A8190E0DC
:103C00000DE110E0809FF001819FF00D909FF00D7D
:103C10001124EA5BFE4D8785882329F1813009F55F
:103C200081E890E266E00E94C02A00D000D000D077
:103C3000ADB7BEB71196EDB7FEB7818292821296EC
:103C40006D927C9213978A8190E0809FF001819F12
:103C5000F00D909FF00D1124EA5BFE4D8089918953
:103C600014C58230A1F584E790E265E00E94C02A85
:103C700000D000D000D0ADB7BEB71196EDB7FEB7FB
:103C80008182928212964D925C9213978A8190E083
:103C9000809FF001819FF00D909FF00D1124EA5B51
:103CA000FE4D8089918914968D939C9315970E945F
:103CB00022302DB73EB72A5F3F4F2DBF3EBFC40114
:103CC00063E00E94C02A8EE790E20C94A126833024
:103CD00079F581E990E267E00E94C02A00D000D027
:103CE00000D0ADB7BEB71196EDB7FEB78182928214
:103CF00012964D925C9213978A8190E0809FF0011A
:103D0000819FF00D909FF00D1124EA5BFE4D80899C
:103D1000918914968D939C9315970E9422302DB70C
:103D20003EB72A5F3F4F2DBF3EBFC40163E0EEC1E7
:103D3000843009F58BE990E268E00E94C02A00D047
:103D400000D000D0ADB7BEB71196EDB7FEB78182F7
:103D5000928212966D927C9213978A8190E0809F56
:103D6000F001819FF00D909FF00D1124EA5BFE4D54
:103D70008089918989C7853011F00C94532787EA8F
:103D800090E265E00E94C02A00D000D000D0ADB71C
:103D9000BEB71196EDB7FEB78182928212966D92F0
:103DA0007C9213978A8190E0809FF001819FF00DB3
:103DB000909FF00D1124EA5BFE4D808991899CC48F
:103DC000823009F0CDC180E390E261E00E94C02A18
:103DD0008A8190E00DE110E0809FF001819FF00D5D
:103DE000909FF00D1124EA5BFE4D87858823E9F44E
:103DF00084E790E265E00E94C02A00D000D000D0A5
:103E0000ADB7BEB71196EDB7FEB78182928212961A
:103E10004D925C9213978A8190E0809FF001819F80
:103E2000F00D909FF00D112456C08130A1F581E86E
:103E300090E266E00E94C02A00D000D000D0ADB76A
:103E4000BEB71196EDB7FEB78182928212966D923F
:103E50007C9213978A8190E0809FF001819FF00D02
:103E6000909FF00D1124EA5BFE4D80899189149694
:103E70008D939C9315970E9422302DB73EB72A5FF1
:103E80003F4F2DBF3EBFC40164E00E94C02A8CE8B2
:103E900090E264E0DDC08230A9F584E790E265E05D
:103EA0000E94C02A00D000D000D0ADB7BEB7119696
:103EB000EDB7FEB78182928212964D925C92139773
:103EC0008A8190E02DE130E0829FF001839FF00D28
:103ED000929FF00D1124EA5BFE4D80899189149622
:103EE0008D939C9315970E9422302DB73EB72A5F81
:103EF0003F4F2DBF3EBFC40163E00E94C02A8EE742
:103F000090E2A5C08330A9F581E990E267E00E94C4
:103F1000C02A00D000D000D0ADB7BEB71196EDB723
:103F2000FEB78182928212966D927C9213978A815B
:103F300090E02DE130E0829FF001839FF00D929F91
:103F4000F00D1124EA5BFE4D8089918914968D93C2
:103F50009C9315970E9422302DB73EB72A5F3F4FA2
:103F60002DBF3EBFC40164E00E94C02A89E990E2EF
:103F700036C08430B1F58BE990E268E00E94C02A37
:103F800000D000D000D0ADB7BEB71196EDB7FEB7E8
:103F90008182928212966D927C9213978A8190E030
:103FA0002DE130E0829FF001839FF00D929FF00D94
:103FB0001124EA5BFE4D8089918914968D939C9320
:103FC00015970E9422302DB73EB72A5F3F4F2DBF75
:103FD0003EBFC40164E00E94C02A84EA90E261E02E
:103FE00037C08530B9F587EA90E265E00E94C02AC3
:103FF00000D000D000D0ADB7BEB71196EDB7FEB778
:104000008182928212966D927C9213978A8190E0BF
:104010002DE130E0829FF001839FF00D929FF00D23
:104020001124EA5BFE4D8089918914968D939C93AF
:1040300015970E9422302DB73EB72A5F3F4F2DBF04
:104040003EBFC40164E00E94C02A8DEA90E262E0B3
:104050000E94C02A80E062E00E94862A8D81882327
:1040600019F48EE290E202C089E490E261E00E94DD
:10407000C02A8A8190E00DE110E0809FF001819FCD
:10408000F00D909FF00D1124EA5BFE4D878588238B
:1040900049F0813039F0823019F487EB90E241C069
:1040A000833021F480EB90E266E03CC08430A1F5DF
:1040B0008FEB90E269E00E94C02A00D000D000D0CF
:1040C000ADB7BEB71196EDB7FEB781829282129658
:1040D0006D927C9213978A8190E0809FF001819F7E
:1040E000F00D909FF00D1124EA5BFE4D82899389BB
:1040F00014968D939C9315970E9422302DB73EB74E
:104100002A5F3F4F2DBF3EBFC40164E00E94C02A1A
:1041100089E990E261E0C5C6853009F0C4C689EC42
:1041200090E267E00E94C02A00D000D000D0ADB776
:10413000BEB71196EDB7FEB78182928212966D924C
:104140007C9213978A8190E0809FF001819FF00D0F
:10415000909FF00D1124EA5BFE4D8289938994C5EE
:10416000833009F048C180E390E261E00E94C02AF8
:104170008A8190E00DE110E0809FF001819FF00DB9
:10418000909FF00D1124EA5BFE4D87858823E9F4AA
:1041900080EB90E266E00E94C02A00D000D000D000
:1041A000ADB7BEB71196EDB7FEB781829282129677
:1041B0006D927C9213978A8190E0809FF001819F9D
:1041C000F00D909FF00D112465C0813039F08230E0
:1041D00019F487EB90E242C0833021F480EB90E247
:1041E00066E03DC08430B1F58FEB90E269E00E945B
:1041F000C02A00D000D000D0ADB7BEB71196EDB741
:10420000FEB78182928212966D927C9213978A8178
:1042100090E02DE130E0829FF001839FF00D929FAE
:10422000F00D1124EA5BFE4D8289938914968D93DB
:104230009C9315970E9422302DB73EB72A5F3F4FBF
:104240002DBF3EBFC40164E00E94C02A89E990E20C
:1042500061E037C08530B9F589EC90E267E00E94F3
:10426000C02A00D000D000D0ADB7BEB71196EDB7D0
:10427000FEB78182928212966D927C9213978A8108
:1042800090E02DE130E0829FF001839FF00D929F3E
:10429000F00D1124EA5BFE4D8289938914968D936B
:1042A0009C9315970E9422302DB73EB72A5F3F4F4F
:1042B0002DBF3EBFC40164E00E94C02A84EA90E2A0
:1042C00062E00E94C02A80E062E00E94862A8D811E
:1042D000882319F48EE290E202C089E490E261E062
:1042E0000E94C02A8A8190E00DE110E0809FF001D9
:1042F000819FF00D909FF00D1124EA5BFE4D8785A4
:104300008823A1F1813091F1823071F587ED90E23F
:1043100067E00E94C02A00D000D000D0ADB7BEB781
:104320001196EDB7FEB78182928212966D927C92C1
:1043300013978A8190E0809FF001819FF00D909FFC
:10434000F00D1124EA5BFE4D8489958914968D93B6
:104350009C9315970E9422302DB73EB72A5F3F4F9E
:104360002DBF3EBFC401A3C1833009F581ED90E2AA
:1043700065E00E94C02A00D000D000D0ADB7BEB723
:104380001196EDB7FEB78182928212966D927C9261
:1043900013978A8190E0809FF001819FF00D909F9C
:1043A000F00D1124EA5BFE4D848995896DC485303A
:1043B00009F079C58FED90E267E00E94C02A00D035
:1043C00000D000D0ADB7BEB71196EDB7FEB7818271
:1043D000928212966D927C9213978A8190E0809FD0
:1043E000F001819FF00D909FF00D1124EA5BFE4DCE
:1043F0008489958981C1843009F091C180E390E27C
:1044000061E00E94C02A8A8190E02DE130E0829F25
:10441000F001839FF00D929FF00D1124EA5BFE4D99
:1044200087858823B9F18130A9F1823089F587ED3C
:1044300090E267E00E94C02A00D000D000D0ADB763
:10444000BEB71196EDB7FEB78182928212966D9239
:104450007C9213978A8190E02DE130E0829FF001F9
:10446000839FF00D929FF00D1124EA5BFE4D84892D
:10447000958914968D939C9315970E9422302DB7A1
:104480003EB72A5F3F4F2DBF3EBFC40164E06EC000
:104490008330A9F581ED90E265E00E94C02A00D04A
:1044A00000D000D0ADB7BEB71196EDB7FEB7818290
:1044B000928212966D927C9213978A8190E02DE100
:1044C00030E0829FF001839FF00D929FF00D112448
:1044D000EA5BFE4D8489958914968D939C9315977C
:1044E0000E9422302DB73EB72A5F3F4F2DBF3EBFFF
:1044F000C40164E00E94C02A84EA90E236C085309C
:10450000B9F58FED90E267E00E94C02A00D000D09C
:1045100000D0ADB7BEB71196EDB7FEB781829282DB
:1045200012966D927C9213978A8190E02DE130E093
:10453000829FF001839FF00D929FF00D1124EA5BA2
:10454000FE4D8489958914968D939C9315970E94AE
:1045500022302DB73EB72A5F3F4F2DBF3EBFC4016B
:1045600064E00E94C02A8DEA90E262E00E94C02AC4
:1045700080E062E00E94862A8D81882319F48EE211
:1045800090E202C089E490E261E00E94C02A8A8140
:1045900090E00DE110E0809FF001819FF00D909F71
:1045A000F00D1124EA5BFE4D8785882321F487EB0B
:1045B00090E267E02AC0813019F587EE90E26BE067
:1045C0000E94C02A00D000D000D0ADB7BEB711966F
:1045D000EDB7FEB78182928223EF30E212962D93DF
:1045E0003C9313978A8190E0809FF001819FF00DAA
:1045F000909FF00D1124EA5BFE4D8689978995C343
:10460000823009F580EB90E266E00E94C02A00D07B
:1046100000D000D0ADB7BEB71196EDB7FEB781821E
:10462000928212966D927C9213978A8190E0809F7D
:10463000F001819FF00D909FF00D1124EA5BFE4D7B
:104640008689978921C38330A1F581E890E266E0ED
:104650000E94C02A00D000D000D0ADB7BEB71196DE
:10466000EDB7FEB78182928212966D927C9213977B
:104670008A8190E0809FF001819FF00D909FF00D66
:104680001124EA5BFE4D8689978914968D939C933D
:1046900015970E9422302DB73EB72A5F3F4F2DBF9E
:1046A0003EBFC40164E00E94C02A8CE890E264E04E
:1046B000F8C3853009F0F7C387EF90E266E00E9407
:1046C000C02A00D000D000D0ADB7BEB71196EDB76C
:1046D000FEB78182928212966D927C9213978A81A4
:1046E00090E0809FF001819FF00D909FF00D1124CC
:1046F000EA5BFE4D8689978914968D939C93159756
:104700000E9422302DB73EB72A5F3F4F2DBF3EBFDC
:10471000C40164E00E94C02A8DEA90E212C3853091
:1047200009F0A0C180E390E261E00E94C02A8A8182
:1047300090E00DE110E0809FF001819FF00D909FCF
:10474000F00D1124EA5BFE4D8785882321F487EB69
:1047500090E267E036C0813079F587EE90E26BE059
:104760000E94C02A00D000D000D0ADB7BEB71196CD
:10477000EDB7FEB78182928223EF30E212962D933D
:104780003C9313978A8190E0809FF001819FF00D08
:10479000909FF00D1124EA5BFE4D8689978914964F
:1047A0008D939C9315970E9422308DB79EB70696E5
:1047B0008DBF9EBFC4019FC0823099F580EB90E20F
:1047C00066E00E94C02A00D000D000D0ADB7BEB7CE
:1047D0001196EDB7FEB78182928212966D927C920D
:1047E00013978A8190E0809FF001819FF00D909F48
:1047F000F00D1124EA5BFE4D8689978914968D93FE
:104800009C9315970E9422302DB73EB72A5F3F4FE9
:104810002DBF3EBFC40164E00E94C02A84EA90E23A
:104820006AC08330A1F581E890E266E00E94C02A68
:1048300000D000D000D0ADB7BEB71196EDB7FEB72F
:104840008182928212966D927C9213978A8190E077
:10485000809FF001819FF00D909FF00D1124EA5B85
:10486000FE4D8689978914968D939C9315970E9487
:1048700022302DB73EB72A5F3F4F2DBF3EBFC40148
:1048800064E00E94C02A8CE890E264E035C0853084
:10489000A9F587EF90E266E00E94C02A00D000D020
:1048A00000D0ADB7BEB71196EDB7FEB78182928248
:1048B00012966D927C9213978A8190E0809FF0010E
:1048C000819FF00D909FF00D1124EA5BFE4D8689CB
:1048D000978914968D939C9315970E9422302DB73B
:1048E0003EB72A5F3F4F2DBF3EBFC40164E00E9428
:1048F000C02A8DEA90E262E00E94C02A80E062E075
:104900000E94862A8D81882319F48EE290E202C0EB
:1049100089E490E261E00E94C02A8A8190E00DE182
:1049200010E0809FF001819FF00D909FF00D112409
:10493000EA5BFE4D8785882319F48EEF90E206C06E
:10494000813029F1823009F581ED90E265E00E9425
:10495000C02A00D000D000D0ADB7BEB71196EDB7D9
:10496000FEB78182928212966D927C9213978A8111
:1049700090E0809FF001819FF00D909FF00D112439
:10498000EA5BFE4D808D918D7FC18330A1F584E07F
:1049900091E263E00E94C02A00D000D000D0ADB701
:1049A000BEB71196EDB7FEB78182928212964D92F4
:1049B0005C9213978A8190E0809FF001819FF00DB7
:1049C000909FF00D1124EA5BFE4D808D918D149621
:1049D0008D939C9315970E9422302DB73EB72A5F86
:1049E0003F4F2DBF3EBFC40163E00E94C02A88E054
:1049F00091E269E056C2853009F055C284E091E247
:104A000063E00E94C02A00D000D000D0ADB7BEB78E
:104A10001196EDB7FEB78182928212966D927C92CA
:104A200013978A8190E0809FF001819FF00D909F05
:104A3000F00D1124EA5BFE4D808D918D14968D93BF
:104A40009C9315970E9422302DB73EB72A5F3F4FA7
:104A50002DBF3EBFC40164E00E94C02A82E191E202
:104A600068E01FC2863009F06EC180E390E261E029
:104A70000E94C02A8A8190E00DE110E0809FF00141
:104A8000819FF00D909FF00D1124EA5BFE4D87850C
:104A9000882319F48EEF90E206C08130C1F1823094
:104AA000A1F581ED90E265E00E94C02A00D000D01F
:104AB00000D0ADB7BEB71196EDB7FEB78182928236
:104AC00012966D927C9213978A8190E0809FF001FC
:104AD000819FF00D909FF00D1124EA5BFE4D808DBB
:104AE000918D14968D939C9315970E9422302DB72B
:104AF0003EB72A5F3F4F2DBF3EBFC40164E00E9416
:104B0000C02A84EA90E262E06BC08330A1F584E0C1
:104B100091E263E00E94C02A00D000D000D0ADB77F
:104B2000BEB71196EDB7FEB78182928212964D9272
:104B30005C9213978A8190E0809FF001819FF00D35
:104B4000909FF00D1124EA5BFE4D808D918D14969F
:104B50008D939C9315970E9422302DB73EB72A5F04
:104B60003F4F2DBF3EBFC40163E00E94C02A88E0D2
:104B700091E269E035C08530A9F584E091E263E017
:104B80000E94C02A00D000D000D0ADB7BEB71196A9
:104B9000EDB7FEB78182928212966D927C92139746
:104BA0008A8190E0809FF001819FF00D909FF00D31
:104BB0001124EA5BFE4D808D918D14968D939C930C
:104BC00015970E9422302DB73EB72A5F3F4F2DBF69
:104BD0003EBFC40164E00E94C02A82E191E268E025
:104BE0000E94C02A80E062E00E94862A8D8188238C
:104BF00019F48EE290E202C089E490E261E00E9442
:104C0000C02A8A8190E00DE110E0809FF001819F31
:104C1000F00D909FF00D1124EA5BFE4D87858823EF
:104C200011F0813079F48BE191E266E00E94C02AB4
:104C30008A8190E0809FF001819FF00D909FF00DA0
:104C4000112423C1823099F58EEF90E265E00E9435
:104C5000C02A00D000D000D0ADB7BEB71196EDB7D6
:104C6000FEB78182928212966D927C9213978A810E
:104C700090E0809FF001819FF00D909FF00D112436
:104C8000EA5BFE4D828D938D14968D939C931597C0
:104C90000E9422302DB73EB72A5F3F4F2DBF3EBF47
:104CA000C40164E00E94C02A84EA90E24AC08330D2
:104CB000B9F48BE191E266E00E94C02A8A8190E01B
:104CC000809FF001819FF00D909FF00D1124EA5B11
:104CD000FE4D848D813009F0E1C082E291E2E0C0B6
:104CE000853009F0E0C080E391E266E00E94C02ACE
:104CF00000D000D000D0ADB7BEB71196EDB7FEB76B
:104D00008182928223EF30E212962D933C93139787
:104D10008A8190E0809FF001819FF00D909FF00DBF
:104D20001124EA5BFE4D828D938D14968D939C9396
:104D300015970E9422308DB79EB706968DBF9EBFF5
:104D4000C40162E0AEC0873009F0ADC08A8190E056
:104D50000DE110E0809FF001819FF00D909FF00D1C
:104D60001124EA5BFE4D87858230C1F580E390E235
:104D700061E00E94C02A8EEF90E265E00E94C02AA6
:104D800000D000D000D0ADB7BEB71196EDB7FEB7DA
:104D90008182928212966D927C9213978A8190E022
:104DA000809FF001819FF00D909FF00D1124EA5B30
:104DB000FE4D828D938D14968D939C9315970E9432
:104DC00022302DB73EB72A5F3F4F2DBF3EBFC401F3
:104DD00064E00E94C02A84EA90E235C08530B1F5D3
:104DE00080E390E261E00E94C02A80E391E266E005
:104DF0000E94C02A00D000D000D0ADB7BEB7119637
:104E0000EDB7FEB78182928223EF30E212962D93A6
:104E10003C9313978A8190E0809FF001819FF00D71
:104E2000909FF00D1124EA5BFE4D828D938D1496B8
:104E30008D939C9315970E9422308DB79EB706964E
:104E40008DBF9EBFC40162E00E94C02A80E062E084
:104E50000E94862A8D81882319F48EE290E202C096
:104E600089E490E261E00E94C02A8BE191E266E071
:104E70000E94C02A8A8190E02DE130E0829FF001FB
:104E8000839FF00D929FF00D1124EA5BFE4D848DFF
:104E9000813021F482E291E265E003C089E291E28F
:104EA00066E00E94C02A86E491E2BE016F5F7F4FF8
:104EB000A1019E012D5F3F4F8E010C5F1F4FE5E06A
:104EC000EE2EF12CEC0EFD1EB6E0CB2ED12CCC0E2E
:104ED000DD1E0E948C03019731F70C94D61B8430A1
:104EE00011F00C94D61B0E947E2A0E94762A8A8199
:104EF0002DE1829FC00111248A5B9E4D6FE00E94CC
:104F0000C02A80E061E00E94862A87E391E26DE09A
:104F10000E94C02A86E491E2BE016F5F7F4FA1012B
:104F20009E012D5F3F4F8E010C5F1F4FA5E0EA2EC3
:104F3000F12CEC0EFD1EF6E0CF2ED12CCC0EDD1E9A
:104F40000E948C03019731F70C94D61BDC0182E0A0
:104F5000A030B80781F482E08093CA01E0E2F0E07B
:104F6000E4911092CA011C96EC931C978093CA019D
:104F7000E1E2F0E00FC082E08093CA01E4E2F0E0F9
:104F8000E4911092CA011C96EC931C978093CA017D
:104F9000E5E2F0E0E4911092CA011D96EC930895C9
:104FA000FC0181E0838324813581261B3109C901FD
:104FB0000895FC0181E0838324813581772767FD93
:104FC0007095261B370BC9010895FC0181E083838E
:104FD00024813581C9010895FC0181E083838481A6
:104FE0000895FC0181E0838385810895FC0184811B
:104FF00014829AE29A95F1F784830895FC019481D2
:1050000081E0848385E58A95F1F794830895FB0117
:105010004423D9F020E030E040E050E061E08081BE
:1050200080688083838180FFFDCF63838481958145
:10503000280F391F4F5F5F4F4430510581F7369578
:10504000279536952795822F0895808180688083E3
:10505000838180FFFDCF81E08383848195810895E2
:10506000FB014423D9F040E050E020E030E061E073
:10507000808180688083838180FFFDCF638384810A
:105080009581480F591F2F5F3F4F2430310581F71D
:10509000CA0164E070E00E94D22F0BC0808180685A
:1050A0008083838180FFFDCF81E08383848195812C
:1050B000682F862F0895AAECB1E092E09C93E82F28
:1050C000F0E0E4911C928E2F0895FC0181818F798C
:1050D00081838281867E682B642B62838081827FBC
:1050E0008560808308950F93FC0181818F798064AE
:1050F00081838281867E682B642B6283022B0483EA
:1051000080818D6080830F910895FC01442319F400
:10511000608F718F0895628F738F0895FC01858170
:10512000662319F421E030E002C022E030E040E0E4
:1051300090E028233923232B09F041E0842F0895A0
:10514000FC0181818C7F862B818347704383089586
:10515000E4E4F6E080818F7D808380818F7B808393
:1051600080818F778083E0E4F6E0808180628083B5
:10517000808180648083808180688083E0E6F6E0BF
:105180008081807F8083E4E6F6E080818F60808389
:105190000895809144068F7D809344068091600637
:1051A000807F80936006809164068F6080936406A0
:1051B0008091440680648093440680914406806810
:1051C000809344068AE08A95F1F79AE02CC080919A
:1051D00044068F7780934406892F8A95F1F7892FAB
:1051E0008A95F1F780914406806880934406892F60
:1051F0008A95F1F7892F8A95F1F7809144068F7788
:1052000080934406892F8A95F1F7892F8A95F1F7C3
:1052100080914406806880934406892F8A95F1F72F
:10522000892F8A95F1F78091680683FDD0CF809110
:1052300044068F778093440608951F93182F0E9489
:10524000C928E4E4F6E080818F7D808380818F7BB4
:10525000808380818068808320E636E0D9018C914C
:105260008F608C93A4E6B6E08C91912F92959F70FD
:10527000807F982B9C939AE0892F8A95F1F7892F4C
:105280008A95F1F780818F778083892F8A95F1F74E
:10529000892F8A95F1F78081806880838C911F70B7
:1052A000807F812B8C93892F8A95F1F79A95F1F75E
:1052B00080818F778083F9018081807F80838C91CA
:1052C0008F608C931F910895E4E4F6E090819F7DB8
:1052D000908390819F7B908390819068908320E65B
:1052E00036E0D9019C919F609C93A4E6B6E09C9126
:1052F00082958F70907F982B9C938AE0982F9A9537
:10530000F1F78A95F1F780818F778083F9018081A9
:10531000807F80838C918F608C9308950E94C92830
:10532000E0E6F6E08081807F8083E4E6F6E080813D
:105330008F608083E4E4F6E080818F7D80838081CC
:10534000806480838081806880839AE0892F8A9539
:10535000F1F7892F8A95F1F7A8E6B6E02C918081C4
:105360008F778083892F8A95F1F7892F8A95F1F7B6
:10537000808180688083892F8A95F1F79A95F1F76B
:105380008C918F702295207F90819F779083822BC4
:1053900008951F93182F0E94C928E4E4F6E0808145
:1053A0008062808380818F7B80838081806880831E
:1053B00020E636E0D9018C918F608C93A4E6B6E0AC
:1053C0008C91912F92959F70807F982B9C939AE05F
:1053D000892F8A95F1F7892F8A95F1F780818F7748
:1053E0008083892F8A95F1F7892F8A95F1F780813B
:1053F000806880838C911F70807F812B8C93892F94
:105400008A95F1F79A95F1F780818F778083F9017A
:105410008081807F80838C918F608C931F91089511
:105420000E94C928E0E6F6E08081807F8083E4E680
:10543000F6E080818F608083E4E4F6E08081806222
:1054400080838081806480838081806880839AE00B
:10545000892F8A95F1F7892F8A95F1F7A8E6B6E0AA
:105460002C9180818F778083892F8A95F1F7892FFE
:105470008A95F1F7808180688083892F8A95F1F77A
:105480009A95F1F78C918F7022952F7090819F776C
:105490009083822B08950E94A82880E30E946429AB
:1054A00084EF91E00197F1F780E30E94642980E3A3
:1054B0000E94642980E20E94642989E20E941D29D9
:1054C00085E10E941D2982E70E941D2985E50E9431
:1054D0001D298EE60E941D298CE00E941D2981E075
:1054E0000E941D2986E00E941D29089582E00E94E5
:1054F0001D2984EF91E00197F1F7089581E00E9462
:105500001D2984EF91E00197F1F70895623031F0A1
:10551000633031F0613029F4805F03C0805E01C0E8
:105520008C5A80680E941D290895FF920F931F9343
:10553000CF93DF93EC01162F042F0E948E29F82EB3
:10554000000F000F000F110F110F110FC10FD11D10
:1055500010E0812F800F80640E941D29FE0184913C
:105560000E94C9291F5F2196183099F78F2D8068F6
:105570000E941D29DF91CF911F910F91FF900895F7
:105580000F931F93CF93DF93062F009749F0EC0101
:1055900010E004C089910E94C9291F5F1017D0F341
:1055A000DF91CF911F910F9108957F928F929F92DB
:1055B000AF92BF92CF92DF92EF92FF920F931F9321
:1055C000742E9C01220F331F280F391F220F331F07
:1055D000872D90E0AC01249FC001259F900D349F42
:1055E000900D11240E94BE2F5B01CC24DD24C60146
:1055F000B50126E030E040E050E00E94E52F862E25
:105600009924EE24FF2487011FC0D801C701059605
:10561000A11DB11DA816B906CA06DB0610F085E06B
:1056200008C0AE14BF04C006D10610F0882D01C01A
:1056300080E00E94C929939486E090E0A0E0B0E069
:10564000E80EF91E0A1F1B1F9714F8F21F910F9105
:10565000FF90EF90DF90CF90BF90AF909F908F9092
:105660007F900895AF92CF92EF920F93DC01FB01F0
:105670006D937C93119712964D935C9313971496A8
:105680001C921497CC2011F490E001C090E82223E2
:1056900011F480E001C080E200650A29902B892B7B
:1056A0008083ED91FC911197E18215961D921C92D9
:1056B00016971296ED91FC91139780EA81830F91D2
:1056C000EF90CF90AF900895EF920F93DC01FB0124
:1056D0006D937C93119712964D935C9313972223AD
:1056E00011F480E401C080E6802B8083ED91FC9171
:1056F0001197E1821296ED91FC91139780E48183DA
:105700000F91EF900895EF920F931F93FC01008388
:105710001183E282638374834583568327831086D3
:1057200011861F910F91EF900895CF93DF93DC01C5
:105730001596CD91DC9116979885ED91FC91119776
:10574000808184FD05C081E014968C93149724C059
:105750008381ED81FE81E90FF11D80839F5F1596A6
:10576000ED91FC9116978781981758F40380F48186
:10577000E02DE90FF11D8081ED91FC91119783835C
:105780000BC082810190F081E02D85831596ED910B
:10579000FC91169781E081871596ED91FC91169703
:1057A0009087DF91CF910895CF93DF93DC01EB01D8
:1057B00014969C9114971596ED91FC91169730973D
:1057C00029F415966D937C93169710C081858823D4
:1057D00011F482E028C0992349F01296ED91FC91D2
:1057E0001397848184FD02C081E01DC01596CD937E
:1057F000DC931697198614961C9214978A81E88177
:10580000F98186831596ED91FC9116971086159671
:10581000ED91FC9116970380F481E02D8081ED914C
:10582000FC91838380E0DF91CF910895FC01A081FA
:10583000B18113966C930190F081E02D828187FFF6
:10584000FDCF83810895CF93DF93EC01FB016115B8
:10585000710511F480E037C06D837E834281A081A1
:10586000B181109711F016964C93678190E01AC0A1
:10587000292F30E00380F481E02DE20FF31F8081B7
:10588000E881F9818383E881F981828187FFFDCFF7
:105890008381ED81FE810580F681E02DE20FF31F0B
:1058A00080839F5FED81FE81961710F30190F08158
:1058B000E02D309709F04583ED81FE816087ED8111
:1058C000FE8181E08187DF91CF910895FC016083A3
:1058D0007183428314861386168615860895FC010B
:1058E00062830895FC018585968520E08F5F837033
:1058F000891321E0822F0895DC011D968C911D975C
:105900001E969C911E9720E08F5F83708917B1F0DF
:1059100021E01D968C911D97FD01E80FF11D678315
:105920008F5F83701D968C931D97ED91FC9111975D
:1059300083818C7F12969C91892B8383822F08957B
:10594000FC019385848520E0981321E0822F08953F
:10595000DC011C968C911C97FD01E80FF11D8381E1
:105960001C969C911C979F5F93701C969C93089526
:10597000DC011B969C911B979F5F93701C968C91EA
:105980001C97ED91FC9111972081981711F480E0FC
:1059900008951B968C911B97FD01E80FF11D238341
:1059A0001B969C9381E00895CF93DF93DC011E96B4
:1059B0009C911E971D968C911D97CD91DC9111970E
:1059C000891721F48B818C7F8B830FC01E968C915D
:1059D0001E97FD01E80FF11D878188831E968C912B
:1059E0001E978F5F83701E968C93DF91CF910895E1
:1059F000FC0170FF03C08481816002C084818E7FBE
:105A0000848360830895FC01848180FF05C08081C8
:105A1000282F30E0316003C08081282F30E0C90199
:105A200008955058BB27AA270ED04DC13ED130F063
:105A300043D120F031F49F3F11F41EF433C10EF432
:105A4000E095E7FB29C1E92F4FD180F3BA17620730
:105A500073078407950718F071F49EF567C10EF47B
:105A6000E0950B2EBA2FA02D0B01B90190010C016E
:105A7000CA01A0011124FF27591B99F0593F50F486
:105A8000503E68F11A16F040A22F232F342F4427DE
:105A9000585FF3CF469537952795A795F0405395D6
:105AA000C9F77EF41F16BA0B620B730B840BBAF0A6
:105AB0009150A1F0FF0FBB1F661F771F881FC2F711
:105AC0000EC0BA0F621F731F841F48F48795779525
:105AD0006795B795F7959E3F08F0B3CF9395880FDC
